:020000040800F2
:1000000010070020B5010008BD010008BF0100086D
:10001000C1010008C3010008C5010008000000007C
:10002000000000000000000000000000C701000800
:10003000C901000800000000CB010008CD01000844
:10004000CF010008CF010008CF010008CF01000850
:10005000CF010008CF010008CF010008CF01000840
:10006000CF010008CF010008CF010008CF01000830
:10007000CF010008CF010008CF010008CF01000820
:10008000CF010008CF010008CF010008CF01000810
:10009000CF010008CF010008CF010008CF01000800
:1000A000CF010008CF010008CF010008CF010008F0
:1000B000CF010008CF010008CF010008CF010008E0
:1000C000CF010008CF010008CF010008CF010008D0
:1000D000CF010008CF010008CF010008CF010008C0
:1000E000CF010008CF010008CF01000800F002F89E
:1000F00000F050F814A696E8000CB244B344DA4578
:1001000001D100F047F8BAE80F000FA696E83000DA
:10011000A5EB040504EB0607AAEB0704A7F101070A
:100120004FEA15154FEA3414A4F10104AC4201D38F
:1001300000F030F813F0010F18BFFB1A43F0010371
:1001400000F001F8DBE71847681700008817000087
:10015000103A24BF78C878C1FAD8520724BF30C8F3
:1001600030C144BF04680C60704700007047000055
:100170000023002400250026103A28BF78C1FBD8B0
:10018000520728BF30C148BF0B6070471FB51FBD65
:1001900010B510BD00F031F81146FFF7F7FF00F081
:1001A0008DFD00F04FF803B4FFF7F2FF03BC00F041
:1001B00057F800000948804709480047FEE7FEE776
:1001C000FEE7FEE7FEE7FEE7FEE7FEE7FEE7FEE707
:1001D00004480549054A064B704700005D090008C0
:1001E000ED0000081001002010070020100300207F
:1001F00010030020704770477047754600F02CF8D8
:10020000AE4605006946534620F00700854618B003
:1002100020B5FFF7DDFFBDE820404FF000064FF0AE
:1002200000074FF000084FF0000BAC46ACE8C009E7
:10023000ACE8C009ACE8C009ACE8C00921F007018E
:100240008D46704710B50446AFF300802046BDE8E8
:100250001040FFF7A8BF00000048704708000020CA
:1002600001491820ABBEFEE72600020070470000DF
:1002700080B58AB000F0A6F9014640F20000C2F253
:1002800000000790026811620068016A41F2941050
:10029000401A0990099800F083FD079909980968A8
:1002A0000863052000F002FC0146079802685163CC
:1002B00009990268D36FC91A916309990268D167D5
:1002C00000680690416A0191816A0091C16A0491B7
:1002D000006B01F093F9014606980291406B01F022
:1002E0008DF9009901F0A2F9019902460298039252
:1002F00001F09CF9039901F003F901460698059174
:10030000806B01F07BF9049901F090F9059901F0F7
:10031000F7F801F057F9069A0799C2F888000A68B9
:10032000506FD2F88820024440F20410C2F200005C
:1003300002600A68116FD2F88820891A0891006853
:10034000652807DBFFE740F20411C2F200016420D8
:100350000860FFE70898652803DBFFE76420089042
:10036000FFE740F20000C2F200000068D0F8900001
:1003700018B9FFE700F0BCFDFFE740F20410C2F23D
:1003800000000068089900F0C9FC0AB080BD0000B8
:1003900041F21801C4F20201086840F00800086048
:1003A00040F60441C4F20101086820F470000860BE
:1003B000086840F44010086008680860086820F089
:1003C00070600860086840F00060086040F60C410A
:1003D000C4F20101086820F4804008607047000002
:1003E00041F21801C4F20201086840F004000860FC
:1003F000086840F00800086040F60001C4F20101FE
:1004000008680020086040F60042C4F2010211684A
:1004100021F0FF01116040F60441C4F201010B68B4
:100420000860106840F0BB001060086840F43B4072
:100430000860086820F070600860086840F000609C
:10044000086040F60C41C4F20101086820F48040C5
:100450000860704784B040F20001C2F200010091D0
:100460000A680020019010620B680022C4F2C822C2
:100470005A620B684DF20A72C3F6A3329A620B6895
:100480000022C4F22012DA620A6810630A6850631C
:100490000A6890630A6850660B6832221A670B6814
:1004A0005A670B680A229A670A68D0670A68C2F816
:1004B00088000A68C2F88C000A68C2F890000A68CE
:1004C000C2F894000968C1F898000390FFE7039808
:1004D00009280FDCFFE740F20000C2F200000068CC
:1004E000039900EB81010020C863FFE70398013006
:1004F0000390ECE700200290FFE7029809280EDC49
:10050000FFE740F20000C2F200000168029A0020FA
:1005100041F82200FFE7029801300290EDE704B0B5
:100520007047000080B584B040F61041C4F201016C
:100530004FF40050009008600A2000F0A1FA0098E3
:1005400040F61441C4F201010860FFE740F608409C
:10055000C4F2010000684004002801D4FFE7F5E779
:1005600040F62400C4F2000000880390FFE740F644
:100570000840C4F2010000684004002801D5FFE7EC
:10058000F5E740F62400C4F20000008802900298CB
:100590000399401A0190019800F0A1FE46F60072FE
:1005A000C0F2814248F6C573C3F6A17300F0AAFEFB
:1005B00000224FF0804300F009FD00F063FE04B01C
:1005C00080BD000080B586B000F06AFC0020059078
:1005D0000490039040F60800C4F201000068C007D0
:1005E000A8B1FFE740F20C11C2F20001012008603F
:1005F000059901F57A71059103990131039140F252
:100600000001C2F200010968C1F89400FFE740F65A
:100610000800C4F201000068800700280ED5FFE73B
:1006200040F20C11C2F2000110200860059800F59C
:10063000FA600590039801300390FFE740F6080048
:10064000C4F201000068400700280FD5FFE740F220
:100650000C11C2F200014FF480700860059800F69A
:10066000B8300590039801300390FFE740F608008A
:10067000C4F201000068000700280FD5FFE740F230
:100680000C11C2F200014FF480500860059800F58B
:100690007A600590039801300390FFE740F6080068
:1006A000C4F201000068C006002810D5FFE740F240
:1006B0000C11C2F200014FF480300860059841F23D
:1006C000883108440590039801300390FFE740F615
:1006D0000800C4F2010000688006002810D5FFE77A
:1006E00040F20C11C2F200014FF48010086005982E
:1006F00041F2707108440590039801300390FFE7C0
:1007000040F60800C4F2010000684006002810D539
:10071000FFE740F20C11C2F200014FF08070086058
:10072000059841F65831084405900398013003902C
:10073000FFE740F60800C4F2010000680006002848
:1007400017D5FFE740F20C11C2F200014FF08050C4
:100750000860059800F5FA50059003980130039061
:1007600040F20000C2F2000001680020C1F89400CD
:10077000FFE740F60801C4F201010191086800F0AA
:10078000010240F20000C2F20000029003681A6009
:100790000A6802F0020203685A600A6802F0040262
:1007A00003689A600A6802F008020368DA600A685F
:1007B00002F0100203681A610A6802F0200203685E
:1007C0005A610A6802F0400203689A61096801F000
:1007D00080010268D1610599039A91FBF2F10268E8
:1007E000116203990268C2F8901004990268C2F875
:1007F0008C100068D0F8900058B9FFE740F2000074
:10080000C2F200000168D1F898000130C1F89800E8
:1008100008E040F20000C2F2000001680020C1F8C8
:100820009800FFE70598039990FBF1F006B080BDB2
:1008300080B500F001F880BD84B0002003900290E4
:1008400041F20001C4F20201086840F480300860FF
:10085000FFE741F20000C4F20200006800F400303B
:100860000290039801300390FFE702990020019065
:1008700039B9FFE70398B0F5A06018BF01200190D7
:10088000FFE70198C0070028E3D1FFE741F200002D
:10089000C4F2020000688003002803D5FFE70120AE
:1008A000029002E000200290FFE70298012851D157
:1008B000FFE742F20001C4F20201086840F01000B4
:1008C0000860086820F007000860086840F002002F
:1008D000086041F20401C4F2020100910868086056
:1008E00008680860086840F480600860086820F4C0
:1008F0007C100860086840F4E810086041F20001CC
:10090000C4F20201086840F080700860FFE741F21D
:100910000000C4F2020000688001002801D4FFE753
:10092000F5E741F20401C4F20201086820F0030077
:100930000860086840F002000860FFE741F2040028
:10094000C4F20200006800F00C00082801D0FFE7A4
:10095000F4E700E0FFE704B07047000080B541F223
:100960000002C4F20202106840F00100106041F27F
:100970000401C4F2020108680023CFF6FF03184007
:10098000086010684FF6FF73CFF6F66318401060EA
:10099000106820F480201060086820F4FE000860D1
:1009A00041F20801C4F202014FF41F000860FFF792
:1009B0003FFF4EF60851CEF200014FF00060086094
:1009C00080BD000041F21C01C4F20201086840F041
:1009D000010008602821C4F20001472008802C2172
:1009E000C4F200014FF6FF7008804FF08041088884
:1009F00040F001000880FFE71020C4F200000088EA
:100A0000C00708B9FFE7F7E77047000041F21C0193
:100A1000C4F20201086840F00400086040F62801B2
:100A2000C4F200014720088040F62C01C4F2000106
:100A30004FF6FF70088040F60001C4F200010888FC
:100A400040F001000880704780B582B0ADF8060024
:100A50000020ADF80400FFE7BDF80400BDF8061063
:100A600088420BDAFFE74FF47A7000F009F8FFE7ED
:100A7000BDF804000130ADF80400EDE702B080BD20
:100A800081B0ADF802002421C4F2000108880020E2
:100A90000880FFE72420C4F200000088BDF802109F
:100AA000884201DAFFE7F5E701B0704782B00190B4
:100AB0000020009040F20001C2F200010968C1F874
:100AC0008400FFE740F20000C2F200000068D0F8A6
:100AD00084000199884219DAFFE740F20000C2F26F
:100AE00000000068D0F8841000EB8100C16B009812
:100AF00008440090FFE740F20000C2F200000168E5
:100B0000D1F884000130C1F88400DBE7009802B01E
:100B10007047000081B00020009041F20401C4F24F
:100B20000201086820F003000860009818B9FFE788
:100B300001200090FFE70098012862D1FFE741F211
:100B40000401C4F2020108680860086820F003008C
:100B50000860FFE741F20400C4F20200006810F0F0
:100B60000C0F01D0FFE7F5E741F20001C4F20201EA
:100B7000086820F080700860FFE741F20000C4F2CE
:100B80000200006800F00070B0F1807F01D1FFE743
:100B9000F3E741F20401C4F20201086840F4806006
:100BA0000860086820F470100860086840F4E010DD
:100BB000086041F20001C4F20201086840F0807050
:100BC0000860FFE741F20000C4F202000068800103
:100BD000002801D4FFE7F5E741F20401C4F2020165
:100BE000086840F002000860FFE741F20400C4F228
:100BF0000200006800F00C00082801D0FFE7F4E7CD
:100C0000FFE701B07047000041F21801C4F2020191
:100C1000086840F00900086041F21C01C4F20201BA
:100C2000086840F00200086040F22041C4F2000170
:100C3000088840F480500880088840F4807008805C
:100C400040F20041C4F20001088840F080000880B2
:100C500040F21C41C4F20001088840F4D0400880F2
:100C6000088840F06800088040F22841C4F2000182
:100C70004720088040F22C41C4F200014FF47A7002
:100C80000880704782B00190009101983C21C4F225
:100C90000001088000984021C4F20001088014215E
:100CA000C4F20001088840F0010008804FF0804144
:100CB000088840F00100088002B0704780B582B01B
:100CC00000200190FFF7C6FBFFF724FFFFF788FB2A
:100CD000FFF778FE00F082F8FFF796FFFFF758FB6A
:100CE000FFF794FEFFE7FFF71DFC00900098142823
:100CF00010D8FFE740F20410C2F2000000220260A8
:100D000040F20811C2F200010A600068096800F0B0
:100D100005F802E0FFF7ACFAFFE7E4E780B582B040
:100D2000019000910198B0F1FF3F0DDCFFE740F228
:100D30000000C2F200000068806F01994843414200
:100D4000002000F08BF80BE040F20000C2F200003F
:100D50000068806F01994843002100F07FF8FFE7A9
:100D60000098B0F1FF3F0DDCFFE740F20000C2F257
:100D700000000068806F0099484341420020FFF75F
:100D800081FF0BE040F20000C2F200000068806FBB
:100D9000009948430021FFF775FFFFE702B080BDCF
:100DA00082B0019009200090FFE70098012812DB33
:100DB000FFE740F20001C2F200010868009A00EB70
:100DC0008202906BD06301980968C863FFE70098BE
:100DD00001380090E9E702B07047000041F21801C5
:100DE000C4F20201086840F00900086041F21C01E9
:100DF000C4F20201086840F0010008600421C4F256
:100E00000101086840F4407008602021C4F200012C
:100E1000088840F480500880088840F4807008807A
:100E20004FF08041088840F0800008801C21C4F207
:100E30000001088840F4D0400880088840F068002D
:100E400008802821C4F20001472008802C21C4F228
:100E500000014FF47A7008807047000082B0019062
:100E60000091009840F24041C4F2000108800198CE
:100E700040F23C41C4F20001088040F21441C4F247
:100E80000001088840F00100088040F20041C4F2EF
:100E90000001088840F00100088002B0704700009F
:100EA00080B582B040F60001C4F2010101910868EA
:100EB00040F03330086008680020086040F60C01FC
:100EC000C4F20101086840F0FF0008600C20FFF741
:100ED000D7FD0199086820F033300860086840F0B9
:100EE000883008600620FFF7AFFD02B080BD00002B
:100EF00080B540F20000C2F200000068D0F898000F
:100F000018283ADCFFE740F20000C2F20000006857
:100F1000D0F89400012812D1FFE740F20410C2F289
:100F200000000F21016040F20811C2F200016FF0D1
:100F300018020A6000680968FFF7F0FE1CE040F242
:100F40000000C2F200000068D0F8940090B9FFE7FA
:100F500040F20410C2F200006FF01801016040F28C
:100F60000811C2F200010F220A6000680968FFF749
:100F7000D5FE00E0FFE7FFE726E040F20000C2F206
:100F800000000068D0F8940001280ED1FFE740F27D
:100F90000411C2F200014620086040F20811C2F2BA
:100FA00000016FF0310008600DE040F20411C2F260
:100FB00000016FF04500086040F20811C2F2000124
:100FC00032200860FFE7FFE780BD00002DE9C04147
:100FD00030B4DFF8A8C23CEA111418BF3CEA13147D
:100FE00000F0F0801CEA111481EA030544EAD5748C
:100FF00018BF1CEA131500F0CB80A4EB050404F124
:101000007F7404F500344FF0004545EAC12145EAFC
:10101000C32341EA505143EA52534FEAC0204FEAFA
:10102000C222994208BF904200F0A0804FEA1365A7
:101030000FF24816765D4FEA134506FB05F7C7F138
:10104000807706FB07F74FEAD737A7FB036876429E
:10105000A7FB06CEC8F5803838BFA8F1010807FB0A
:1010600008E6A6FB028C4FF0000EE6FB03CED8F19B
:1010700000086FEA0C0C5CF1000C6FEA0E0E4EF1EA
:10108000004EA6FB0C584FF00007E6FB0E87A1FBB5
:1010900008C6A0FB07CE16EB0E064FF0000545F183
:1010A0000005E1FB076515F1E04E7EBFA4F5803435
:1010B0005FEA46066D4116F1800745F100054FEAEB
:1010C000172747EA05674FEA15254FEA0666A6F196
:1010D000DE46B6F1805F20D9384605EBC47124F0B6
:1010E000010C01EB0C11BCF1FE6F02D8F0BCBDE8A5
:1010F000008124425CBF01F5801E9EEAC47F02D4B9
:10110000F0BCBDE80081244200F13980A1F1C0416A
:10111000F0BCBDE8004100F0EDB94FEAD02040EA54
:1011200041504FEAD1214FEAD22242EA43524FEADC
:10113000D323A7FB028607FB036605FB02661EEAB4
:101140000E0F58BFA6EB0056B6EB00564FEA520EF4
:101150004EEAC37E18EB0E0E56EB530EBCD518EBC1
:1011600002085E417F1C55F10005B5E74FF480157C
:101170004FF000074FF000064FF00008ACE701F118
:10118000C04101F000414FF00000F0BCBDE800811B
:101190000CEA131511EA0C1F00D00CE013EA0C1F27
:1011A00000F025804FF0000081EA030101F00041CA
:1011B000F0BCBDE80081F0BCBDE8004181EA03015C
:1011C00000F098B9F0BCBDE8004170B500F044F9FA
:1011D000097EFC3E00F007B84FF0000081EA0301F1
:1011E00001F00041704781EA030100F083B9F0BCCF
:1011F000BDE8004122494FF000007047FFFDFBF9B8
:10120000F7F5F4F2F0EEEDEBE9E8E6E4E3E1E0DE39
:10121000DDDBDAD8D7D5D4D3D1D0CFCDCCCBCAC8AB
:10122000C7C6C5C4C2C1C0BFBEBDBCBBBAB9B8B7D2
:10123000B6B5B4B3B2B1B0AFAEADACABAAA9A8A8C5
:10124000A7A6A5A4A3A3A2A1A09F9F9E9D9C9C9B93
:101250009A9999989797969595949393929191903E
:101260008F8F8E8E8D8C8C8B8B8A898988888787CF
:101270008685858484838382828181800000FF0744
:101280000000F87F4FEA1153A3F58063D3F11E03EA
:10129000A8BFD3F1200C08DB4FF0004242EAC12284
:1012A00052EA505232FA03F0704709420BD4102B25
:1012B000C4BF0020704703F5787CBCF1FF3F05D028
:1012C0004FF0FF3070474FF00000704770B500F0EE
:1012D000C3F800BF4992248000207047F0E7B0FABD
:1012E00080F310FA03F10AD0C3F11D0303F5806304
:1012F0004FEA03524FEA415002EBD12170474FF0C1
:101300000000704770B5DFF848C11CEA111E1EBF0F
:101310001CEA13159EEA0C0F95EA0C0F00F06F8083
:1013200081EA03044EEAD47EAE4421EA4C1123EA5A
:101330004C1341F4801143F48013AEF17F7EA1FB86
:10134000024CA0FB0365361955EB0C05A1FB034CC1
:101350004CF10003A0FB021C16EB0C06654153F197
:101360000003094218BF46F0010613F4007F0BD1B9
:101370004FEA03314FEA053041EA155140EA165071
:1013800034036FF003020AE04FEAC3214FEAC5209D
:1013900041EA555140EA5650F4026FF0020202EB66
:1013A0002E4201EB025585EACE710AD05FEA440C69
:1013B00018BF24F0004450F1000041F1000120EA80
:1013C000D47040F2FE7C624500D270BDA84214BFCA
:1013D0004FF080444FF04044002E08BF0024BEF17F
:1013E000806FA8BFA1F1C041BDE8704080F282804B
:1013F00001F1C04101F000414FF0000070470CEADC
:1014000013159EEA0C0F18BF95EA0C0F06D081EA5F
:10141000030E4FF000000EF0004170BD00F01CF80C
:101420008900013E00F007B800F009B84FEA430C0C
:101430005FEA5C5C08D081EA030100F05BB84FEA28
:10144000410C5FEA5C5CF6D102494FF00000704746
:101450000000FF070000F87F0EF1020E2EF0030ED1
:101460005EF8046B364205D4012A43EB030515F5FB
:10147000001F12D8012841EB010C1CF5001F0CD8ED
:101480000ED14FEAD17C0CEB4C0C0CF1020C15F593
:10149000001F08BF4CEBD37C04E04FF0080C01E0C8
:1014A0004FEAD37C0CEB4C0526FA05F606F007064E
:1014B000B6F1040C06D20EEB860CBDE870404CF081
:1014C000010C6047DFE80CF0090B02024FF000410D
:1014D000A1F500214FF0000070BD1946104601280B
:1014E00051EB010418BFD4F5001484BF002001F0B3
:1014F000004170BD0808A0F500114FEA31017047A6
:1015000090EA010F48BF81F0004100F16281421A68
:101510003CBF801A89184FEAD052A2EBD1534FF04A
:101520007F4C1CEA410F18BF9CEA026F00F03B8021
:101530004FF0004C4CEA00204CEA012121FA03FC58
:1015400010EB0C0C1ED202F1FF325FEA1C2040EBC4
:10155000C25038BF70471CF07F0F4FEA400C18BFD5
:10156000BCF17F4F38BF7047C3F12003994008BFDB
:1015700020F00100BCF17F4F38BF7047A0F1C040A0
:1015800000F01BB94FEA3C00000A40EBC25028BFF4
:101590001CF0FF0F4FEA400CE6D018BFBCF17F4FA4
:1015A00038BF7047EAE79CEA026F05D010EA5C0F8B
:1015B00008BF00F00040704710B500F0B8F800BF59
:1015C00064FBBE3E41000B0ED3F19E0208D950F4DD
:1015D00000034FEA032323FA02F048BF404270475A
:1015E00010B500F0A4F800BF499224800020704795
:1015F0006FF0004282EA20007047000010F00041C6
:1016000048BF4042B0FA80F310FA03F2C3F19D03E1
:101610000BD051EAC35101EB1220530638BF70477B
:1016200000F1010008BF20F0010070474FF47F0C6B
:101630001CEAD0121EBF1CEAD11392EA0C0F93EAE7
:101640000C0F00F0478090EA010F48BF42F480720F
:101650004FF0004C4CEA00204CEA012102EB03025F
:10166000A0FB0113A2F50002002918BF43F00103FB
:101670005B0028BF4FEA330342EB22425FEA132CA0
:101680004CEBC2502EBFBCEB436FB2F57C0F7047E2
:101690004FEA036CBCF1004F08BF20F00100B2F527
:1016A0007C0F38BF70470BD582F0FF0212F5803FE8
:1016B000C8BF704700F1C040D8BF00F0004070477D
:1016C00000F5000C5FEA4C0C48BF7047B0F1C04019
:1016D00000F073B80CEAD11390EA010F48BF42F44E
:1016E0008072624538BF634504D280EA010000F091
:1016F0000040704710B500F01AF800BF8900013EA5
:1017000000F007B800F009B85FEA410C5FEA1C6C12
:1017100008D080EA010000F050B85FEA400C5FEAB0
:101720001C6CF6D14FF00040A0F5800070470EF120
:10173000020E2EF0030E5EF8044B244204D44FEA4E
:101740004102B2F17F4F11D84FEA4003B3F17F4F0E
:101750000CD80ED14FEAD07C0CEB4C0C0CF1020CE7
:10176000B2F17F4F08BF4CEBD17C04E04FF0080C86
:1017700001E04FEAD17C0CEB4C0324FA03F404F0B3
:101780000704B4F1040C06D20EEB840CBDE8104043
:101790004CF0010C6047DFE80CF0070802024FF044
:1017A0000040A0F5800010BD0846420018BFD2F1ED
:1017B000807288BF00F0004010BDFF2141EAD05088
:1017C000C005704790EA010F48BF81F000413FF526
:1017D0009EAE421A04D882F00042A0EB02001144EF
:1017E0004FEAD052A2EBD1534FF07F4C1CEA410F8D
:1017F00018BF9CEA026F4AD04FF0004C4CEA002020
:101800004CEA012121FA03FCB0EB0C0C0FD412F0CE
:10181000FE0F36D05FEA4C001DD5001240EBC250DF
:1018200038BF70471CF03F0F18BF70470BE05FEAEE
:101830001C20A2F1010240EBC25038BF70471CF0DF
:101840007F0F18BF7047C3F12003994014BF401E9B
:1018500020F0010070474FEA1223800808BF70474C
:10186000B0FA80FCA2EB0C02CCF1280C60FA0CF070
:1018700093EA122F04BF00EBC25070474FEAC370C7
:101880007047130A5FEADC1008BF7047F6E79CEA6E
:10189000026F04D010EA5C0F08BF0020704710B53B
:1018A000FFF745FF40DFF63E81F000407047000043
:1018B000D0180008000000200400000050010008BB
:1018C000D418000808000020080700007001000874
:0418D000680000208C
:04000005080001B539
:00000001FF
